{
  "_format": "hh-sol-artifact-1",
  "contractName": "OrderSwap",
  "sourceName": "contracts/orderSwap.sol",
  "abi": [
    {
      "inputs": [],
      "stateMutability": "nonpayable",
      "type": "constructor"
    },
    {
      "inputs": [
        {
          "internalType": "address",
          "name": "owner",
          "type": "address"
        }
      ],
      "name": "OwnableInvalidOwner",
      "type": "error"
    },
    {
      "inputs": [
        {
          "internalType": "address",
          "name": "account",
          "type": "address"
        }
      ],
      "name": "OwnableUnauthorizedAccount",
      "type": "error"
    },
    {
      "anonymous": false,
      "inputs": [
        {
          "indexed": false,
          "internalType": "uint256",
          "name": "orderId",
          "type": "uint256"
        }
      ],
      "name": "OrderCancelled",
      "type": "event"
    },
    {
      "anonymous": false,
      "inputs": [
        {
          "indexed": false,
          "internalType": "uint256",
          "name": "orderId",
          "type": "uint256"
        },
        {
          "indexed": true,
          "internalType": "address",
          "name": "tokenIn",
          "type": "address"
        },
        {
          "indexed": true,
          "internalType": "address",
          "name": "expectedToken",
          "type": "address"
        },
        {
          "indexed": false,
          "internalType": "uint256",
          "name": "amountIn",
          "type": "uint256"
        },
        {
          "indexed": false,
          "internalType": "uint256",
          "name": "expectedAmount",
          "type": "uint256"
        },
        {
          "indexed": false,
          "internalType": "uint256",
          "name": "deadline",
          "type": "uint256"
        }
      ],
      "name": "OrderCreated",
      "type": "event"
    },
    {
      "anonymous": false,
      "inputs": [
        {
          "indexed": false,
          "internalType": "uint256",
          "name": "orderId",
          "type": "uint256"
        },
        {
          "indexed": true,
          "internalType": "address",
          "name": "buyer",
          "type": "address"
        },
        {
          "indexed": true,
          "internalType": "address",
          "name": "seller",
          "type": "address"
        },
        {
          "indexed": false,
          "internalType": "uint256",
          "name": "amount",
          "type": "uint256"
        }
      ],
      "name": "OrderFilled",
      "type": "event"
    },
    {
      "anonymous": false,
      "inputs": [
        {
          "indexed": true,
          "internalType": "address",
          "name": "previousOwner",
          "type": "address"
        },
        {
          "indexed": true,
          "internalType": "address",
          "name": "newOwner",
          "type": "address"
        }
      ],
      "name": "OwnershipTransferred",
      "type": "event"
    },
    {
      "inputs": [
        {
          "internalType": "address",
          "name": "",
          "type": "address"
        },
        {
          "internalType": "address",
          "name": "",
          "type": "address"
        }
      ],
      "name": "balances",
      "outputs": [
        {
          "internalType": "uint256",
          "name": "",
          "type": "uint256"
        }
      ],
      "stateMutability": "view",
      "type": "function"
    },
    {
      "inputs": [
        {
          "internalType": "address",
          "name": "_tokenIn",
          "type": "address"
        },
        {
          "internalType": "address",
          "name": "_expectedToken",
          "type": "address"
        },
        {
          "internalType": "uint256",
          "name": "_amountIn",
          "type": "uint256"
        },
        {
          "internalType": "uint256",
          "name": "_expectedAmount",
          "type": "uint256"
        },
        {
          "internalType": "uint256",
          "name": "_deadline",
          "type": "uint256"
        }
      ],
      "name": "createOrder",
      "outputs": [
        {
          "internalType": "uint256",
          "name": "",
          "type": "uint256"
        }
      ],
      "stateMutability": "nonpayable",
      "type": "function"
    },
    {
      "inputs": [
        {
          "internalType": "address",
          "name": "_tokenAddress",
          "type": "address"
        },
        {
          "internalType": "uint256",
          "name": "_amount",
          "type": "uint256"
        }
      ],
      "name": "depositTokens",
      "outputs": [],
      "stateMutability": "nonpayable",
      "type": "function"
    },
    {
      "inputs": [
        {
          "internalType": "uint256",
          "name": "orderId",
          "type": "uint256"
        }
      ],
      "name": "fillOrder",
      "outputs": [],
      "stateMutability": "nonpayable",
      "type": "function"
    },
    {
      "inputs": [
        {
          "internalType": "address",
          "name": "depositor",
          "type": "address"
        },
        {
          "internalType": "address",
          "name": "tokenAddress",
          "type": "address"
        }
      ],
      "name": "getBalance",
      "outputs": [
        {
          "internalType": "uint256",
          "name": "",
          "type": "uint256"
        }
      ],
      "stateMutability": "view",
      "type": "function"
    },
    {
      "inputs": [],
      "name": "orderCount",
      "outputs": [
        {
          "internalType": "uint256",
          "name": "",
          "type": "uint256"
        }
      ],
      "stateMutability": "view",
      "type": "function"
    },
    {
      "inputs": [
        {
          "internalType": "address",
          "name": "",
          "type": "address"
        },
        {
          "internalType": "uint256",
          "name": "",
          "type": "uint256"
        }
      ],
      "name": "orderIds",
      "outputs": [
        {
          "internalType": "uint256",
          "name": "",
          "type": "uint256"
        }
      ],
      "stateMutability": "view",
      "type": "function"
    },
    {
      "inputs": [
        {
          "internalType": "uint256",
          "name": "",
          "type": "uint256"
        }
      ],
      "name": "orders",
      "outputs": [
        {
          "internalType": "address",
          "name": "depositor",
          "type": "address"
        },
        {
          "internalType": "address",
          "name": "tokenIn",
          "type": "address"
        },
        {
          "internalType": "address",
          "name": "expectedToken",
          "type": "address"
        },
        {
          "internalType": "uint256",
          "name": "amountIn",
          "type": "uint256"
        },
        {
          "internalType": "uint256",
          "name": "expectedAmount",
          "type": "uint256"
        },
        {
          "internalType": "uint256",
          "name": "deadline",
          "type": "uint256"
        },
        {
          "internalType": "bool",
          "name": "isFilled",
          "type": "bool"
        }
      ],
      "stateMutability": "view",
      "type": "function"
    },
    {
      "inputs": [],
      "name": "owner",
      "outputs": [
        {
          "internalType": "address",
          "name": "",
          "type": "address"
        }
      ],
      "stateMutability": "view",
      "type": "function"
    },
    {
      "inputs": [],
      "name": "renounceOwnership",
      "outputs": [],
      "stateMutability": "nonpayable",
      "type": "function"
    },
    {
      "inputs": [
        {
          "internalType": "address",
          "name": "newOwner",
          "type": "address"
        }
      ],
      "name": "transferOwnership",
      "outputs": [],
      "stateMutability": "nonpayable",
      "type": "function"
    }
  ],
  "bytecode": "0x60806040523480156200001157600080fd5b5033600073ffffffffffffffffffffffffffffffffffffffff168173ffffffffffffffffffffffffffffffffffffffff1603620000885760006040517f1e4fbdf70000000000000000000000000000000000000000000000000000000081526004016200007f9190620001a9565b60405180910390fd5b6200009981620000a060201b60201c565b50620001c6565b60008060009054906101000a900473ffffffffffffffffffffffffffffffffffffffff169050816000806101000a81548173ffffffffffffffffffffffffffffffffffffffff021916908373ffffffffffffffffffffffffffffffffffffffff1602179055508173ffffffffffffffffffffffffffffffffffffffff168173ffffffffffffffffffffffffffffffffffffffff167f8be0079c531659141344cd1fd0a4f28419497f9722a3daafe3b4186f6b6457e060405160405180910390a35050565b600073ffffffffffffffffffffffffffffffffffffffff82169050919050565b6000620001918262000164565b9050919050565b620001a38162000184565b82525050565b6000602082019050620001c0600083018462000198565b92915050565b61177380620001d66000396000f3fe608060405234801561001057600080fd5b50600436106100a95760003560e01c80638da5cb5b116100715780638da5cb5b1461013e57806390ddbe3a1461015c578063a85c38ef1461018c578063c23f001f146101c2578063d4fac45d146101f2578063f2fde38b14610222576100a9565b80632453ffa8146100ae578063518e62db146100cc57806366168bd7146100fc57806367b830ad14610118578063715018a614610134575b600080fd5b6100b661023e565b6040516100c39190610fc5565b60405180910390f35b6100e660048036038101906100e1919061106f565b610244565b6040516100f39190610fc5565b60405180910390f35b610116600480360381019061011191906110ea565b610634565b005b610132600480360381019061012d919061112a565b61074c565b005b61013c610c0a565b005b610146610c1e565b6040516101539190611166565b60405180910390f35b610176600480360381019061017191906110ea565b610c47565b6040516101839190610fc5565b60405180910390f35b6101a660048036038101906101a1919061112a565b610c78565b6040516101b9979695949392919061119c565b60405180910390f35b6101dc60048036038101906101d7919061120b565b610d27565b6040516101e99190610fc5565b60405180910390f35b61020c6004803603810190610207919061120b565b610d4c565b6040516102199190610fc5565b60405180910390f35b61023c6004803603810190610237919061124b565b610dd3565b005b60015481565b600060016000815480929190610259906112a7565b919050555060006001549050600260008873ffffffffffffffffffffffffffffffffffffffff1673ffffffffffffffffffffffffffffffffffffffff16815260200190815260200160002081908060018154018082558091505060019003906000526020600020016000909190919091505584600360003373ffffffffffffffffffffffffffffffffffffffff1673ffffffffffffffffffffffffffffffffffffffff16815260200190815260200160002060008973ffffffffffffffffffffffffffffffffffffffff1673ffffffffffffffffffffffffffffffffffffffff16815260200190815260200160002054101561038a576040517f08c379a00000000000000000000000000000000000000000000000000000000081526004016103819061134c565b60405180910390fd5b4283116103cc576040517f08c379a00000000000000000000000000000000000000000000000000000000081526004016103c3906113b8565b60405180910390fd5b6000851180156103dc5750600084115b61041b576040517f08c379a000000000000000000000000000000000000000000000000000000000815260040161041290611424565b60405180910390fd5b6040518060e001604052803373ffffffffffffffffffffffffffffffffffffffff1681526020018873ffffffffffffffffffffffffffffffffffffffff1681526020018773ffffffffffffffffffffffffffffffffffffffff168152602001868152602001858152602001848152602001600015158152506004600083815260200190815260200160002060008201518160000160006101000a81548173ffffffffffffffffffffffffffffffffffffffff021916908373ffffffffffffffffffffffffffffffffffffffff16021790555060208201518160010160006101000a81548173ffffffffffffffffffffffffffffffffffffffff021916908373ffffffffffffffffffffffffffffffffffffffff16021790555060408201518160020160006101000a81548173ffffffffffffffffffffffffffffffffffffffff021916908373ffffffffffffffffffffffffffffffffffffffff160217905550606082015181600301556080820151816004015560a0820151816005015560c08201518160060160006101000a81548160ff0219169083151502179055509050508573ffffffffffffffffffffffffffffffffffffffff168773ffffffffffffffffffffffffffffffffffffffff167f34a488e30be72501cf73f84a697e99dcc9efa94b95e327e94dafeb18f80ee4698388888860405161061f9493929190611444565b60405180910390a38091505095945050505050565b8173ffffffffffffffffffffffffffffffffffffffff166323b872dd3330846040518463ffffffff1660e01b815260040161067193929190611489565b6020604051808303816000875af1158015610690573d6000803e3d6000fd5b505050506040513d601f19601f820116820180604052508101906106b491906114ec565b5080600360003373ffffffffffffffffffffffffffffffffffffffff1673ffffffffffffffffffffffffffffffffffffffff16815260200190815260200160002060008473ffffffffffffffffffffffffffffffffffffffff1673ffffffffffffffffffffffffffffffffffffffff16815260200190815260200160002060008282546107419190611519565b925050819055505050565b60006004600083815260200190815260200160002090508060060160009054906101000a900460ff16156107b5576040517f08c379a00000000000000000000000000000000000000000000000000000000081526004016107ac90611599565b60405180910390fd5b80600501544211156107fc576040517f08c379a00000000000000000000000000000000000000000000000000000000081526004016107f390611605565b60405180910390fd5b8060030154600360008360000160009054906101000a900473ffffffffffffffffffffffffffffffffffffffff1673ffffffffffffffffffffffffffffffffffffffff1673ffffffffffffffffffffffffffffffffffffffff16815260200190815260200160002060008360010160009054906101000a900473ffffffffffffffffffffffffffffffffffffffff1673ffffffffffffffffffffffffffffffffffffffff1673ffffffffffffffffffffffffffffffffffffffff168152602001908152602001600020541015610907576040517f08c379a00000000000000000000000000000000000000000000000000000000081526004016108fe90611697565b60405180910390fd5b8060020160009054906101000a900473ffffffffffffffffffffffffffffffffffffffff1673ffffffffffffffffffffffffffffffffffffffff166323b872dd338360000160009054906101000a900473ffffffffffffffffffffffffffffffffffffffff1684600401546040518463ffffffff1660e01b815260040161099093929190611489565b6020604051808303816000875af11580156109af573d6000803e3d6000fd5b505050506040513d601f19601f820116820180604052508101906109d391906114ec565b508060030154600360008360000160009054906101000a900473ffffffffffffffffffffffffffffffffffffffff1673ffffffffffffffffffffffffffffffffffffffff1673ffffffffffffffffffffffffffffffffffffffff16815260200190815260200160002060008360010160009054906101000a900473ffffffffffffffffffffffffffffffffffffffff1673ffffffffffffffffffffffffffffffffffffffff1673ffffffffffffffffffffffffffffffffffffffff1681526020019081526020016000206000828254610aac91906116b7565b925050819055508060010160009054906101000a900473ffffffffffffffffffffffffffffffffffffffff1673ffffffffffffffffffffffffffffffffffffffff1663a9059cbb3383600301546040518363ffffffff1660e01b8152600401610b169291906116eb565b6020604051808303816000875af1158015610b35573d6000803e3d6000fd5b505050506040513d601f19601f82011682018060405250810190610b5991906114ec565b5060018160060160006101000a81548160ff0219169083151502179055508060020160009054906101000a900473ffffffffffffffffffffffffffffffffffffffff1673ffffffffffffffffffffffffffffffffffffffff163373ffffffffffffffffffffffffffffffffffffffff167f6c7da5d74e17e1b2aaa2764ed920deb63eabf5ab66f39641a37bf69a731ef040848460030154604051610bfe929190611714565b60405180910390a35050565b610c12610e59565b610c1c6000610ee0565b565b60008060009054906101000a900473ffffffffffffffffffffffffffffffffffffffff16905090565b60026020528160005260406000208181548110610c6357600080fd5b90600052602060002001600091509150505481565b60046020528060005260406000206000915090508060000160009054906101000a900473ffffffffffffffffffffffffffffffffffffffff16908060010160009054906101000a900473ffffffffffffffffffffffffffffffffffffffff16908060020160009054906101000a900473ffffffffffffffffffffffffffffffffffffffff16908060030154908060040154908060050154908060060160009054906101000a900460ff16905087565b6003602052816000526040600020602052806000526040600020600091509150505481565b6000600360008473ffffffffffffffffffffffffffffffffffffffff1673ffffffffffffffffffffffffffffffffffffffff16815260200190815260200160002060008373ffffffffffffffffffffffffffffffffffffffff1673ffffffffffffffffffffffffffffffffffffffff16815260200190815260200160002054905092915050565b610ddb610e59565b600073ffffffffffffffffffffffffffffffffffffffff168173ffffffffffffffffffffffffffffffffffffffff1603610e4d5760006040517f1e4fbdf7000000000000000000000000000000000000000000000000000000008152600401610e449190611166565b60405180910390fd5b610e5681610ee0565b50565b610e61610fa4565b73ffffffffffffffffffffffffffffffffffffffff16610e7f610c1e565b73ffffffffffffffffffffffffffffffffffffffff1614610ede57610ea2610fa4565b6040517f118cdaa7000000000000000000000000000000000000000000000000000000008152600401610ed59190611166565b60405180910390fd5b565b60008060009054906101000a900473ffffffffffffffffffffffffffffffffffffffff169050816000806101000a81548173ffffffffffffffffffffffffffffffffffffffff021916908373ffffffffffffffffffffffffffffffffffffffff1602179055508173ffffffffffffffffffffffffffffffffffffffff168173ffffffffffffffffffffffffffffffffffffffff167f8be0079c531659141344cd1fd0a4f28419497f9722a3daafe3b4186f6b6457e060405160405180910390a35050565b600033905090565b6000819050919050565b610fbf81610fac565b82525050565b6000602082019050610fda6000830184610fb6565b92915050565b600080fd5b600073ffffffffffffffffffffffffffffffffffffffff82169050919050565b600061101082610fe5565b9050919050565b61102081611005565b811461102b57600080fd5b50565b60008135905061103d81611017565b92915050565b61104c81610fac565b811461105757600080fd5b50565b60008135905061106981611043565b92915050565b600080600080600060a0868803121561108b5761108a610fe0565b5b60006110998882890161102e565b95505060206110aa8882890161102e565b94505060406110bb8882890161105a565b93505060606110cc8882890161105a565b92505060806110dd8882890161105a565b9150509295509295909350565b6000806040838503121561110157611100610fe0565b5b600061110f8582860161102e565b92505060206111208582860161105a565b9150509250929050565b6000602082840312156111405761113f610fe0565b5b600061114e8482850161105a565b91505092915050565b61116081611005565b82525050565b600060208201905061117b6000830184611157565b92915050565b60008115159050919050565b61119681611181565b82525050565b600060e0820190506111b1600083018a611157565b6111be6020830189611157565b6111cb6040830188611157565b6111d86060830187610fb6565b6111e56080830186610fb6565b6111f260a0830185610fb6565b6111ff60c083018461118d565b98975050505050505050565b6000806040838503121561122257611221610fe0565b5b60006112308582860161102e565b92505060206112418582860161102e565b9150509250929050565b60006020828403121561126157611260610fe0565b5b600061126f8482850161102e565b91505092915050565b7f4e487b7100000000000000000000000000000000000000000000000000000000600052601160045260246000fd5b60006112b282610fac565b91507fffffffffffffffffffffffffffffffffffffffffffffffffffffffffffffffff82036112e4576112e3611278565b5b600182019050919050565b600082825260208201905092915050565b7f496e73756666696369656e7420746f6b656e2062616c616e6365000000000000600082015250565b6000611336601a836112ef565b915061134182611300565b602082019050919050565b6000602082019050818103600083015261136581611329565b9050919050565b7f496e76616c69642065787069726174696f6e2074696d65000000000000000000600082015250565b60006113a26017836112ef565b91506113ad8261136c565b602082019050919050565b600060208201905081810360008301526113d181611395565b9050919050565b7f496e76616c696420616d6f756e74730000000000000000000000000000000000600082015250565b600061140e600f836112ef565b9150611419826113d8565b602082019050919050565b6000602082019050818103600083015261143d81611401565b9050919050565b60006080820190506114596000830187610fb6565b6114666020830186610fb6565b6114736040830185610fb6565b6114806060830184610fb6565b95945050505050565b600060608201905061149e6000830186611157565b6114ab6020830185611157565b6114b86040830184610fb6565b949350505050565b6114c981611181565b81146114d457600080fd5b50565b6000815190506114e6816114c0565b92915050565b60006020828403121561150257611501610fe0565b5b6000611510848285016114d7565b91505092915050565b600061152482610fac565b915061152f83610fac565b925082820190508082111561154757611546611278565b5b92915050565b7f4f7264657220616c72656164792066696c6c6564000000000000000000000000600082015250565b60006115836014836112ef565b915061158e8261154d565b602082019050919050565b600060208201905081810360008301526115b281611576565b9050919050565b7f4f72646572206578706972656400000000000000000000000000000000000000600082015250565b60006115ef600d836112ef565b91506115fa826115b9565b602082019050919050565b6000602082019050818103600083015261161e816115e2565b9050919050565b7f6465706f7369746f722068617320696e73756666696369656e7420746f6b656e60008201527f7300000000000000000000000000000000000000000000000000000000000000602082015250565b60006116816021836112ef565b915061168c82611625565b604082019050919050565b600060208201905081810360008301526116b081611674565b9050919050565b60006116c282610fac565b91506116cd83610fac565b92508282039050818111156116e5576116e4611278565b5b92915050565b60006040820190506117006000830185611157565b61170d6020830184610fb6565b9392505050565b60006040820190506117296000830185610fb6565b6117366020830184610fb6565b939250505056fea2646970667358221220d51afdf601a900b5f6f3a6e4cfbd2ea283bf337a0e4caaa8fcc69655a6120f7f64736f6c63430008180033",
  "linkReferences": {},
  "deployedLinkReferences": {}
}